{
  "_format": "hh-sol-artifact-1",
  "contractName": "WorldCupRabbitNFT",
  "sourceName": "contracts/WorldCupRabbitNFT.sol",
  "abi": [
    {
      "inputs": [
        {
          "internalType": "string",
          "name": "_initBaseURI",
          "type": "string"
        }
      ],
      "stateMutability": "nonpayable",
      "type": "constructor"
    },
    {
      "inputs": [],
      "name": "ApprovalCallerNotOwnerNorApproved",
      "type": "error"
    },
    {
      "inputs": [],
      "name": "ApprovalQueryForNonexistentToken",
      "type": "error"
    },
    {
      "inputs": [],
      "name": "BalanceQueryForZeroAddress",
      "type": "error"
    },
    {
      "inputs": [],
      "name": "MintERC2309QuantityExceedsLimit",
      "type": "error"
    },
    {
      "inputs": [],
      "name": "MintToZeroAddress",
      "type": "error"
    },
    {
      "inputs": [],
      "name": "MintZeroQuantity",
      "type": "error"
    },
    {
      "inputs": [],
      "name": "OwnerQueryForNonexistentToken",
      "type": "error"
    },
    {
      "inputs": [],
      "name": "OwnershipNotInitializedForExtraData",
      "type": "error"
    },
    {
      "inputs": [],
      "name": "TransferCallerNotOwnerNorApproved",
      "type": "error"
    },
    {
      "inputs": [],
      "name": "TransferFromIncorrectOwner",
      "type": "error"
    },
    {
      "inputs": [],
      "name": "TransferToNonERC721ReceiverImplementer",
      "type": "error"
    },
    {
      "inputs": [],
      "name": "TransferToZeroAddress",
      "type": "error"
    },
    {
      "inputs": [],
      "name": "URIQueryForNonexistentToken",
      "type": "error"
    },
    {
      "anonymous": false,
      "inputs": [
        {
          "indexed": true,
          "internalType": "address",
          "name": "owner",
          "type": "address"
        },
        {
          "indexed": true,
          "internalType": "address",
          "name": "approved",
          "type": "address"
        },
        {
          "indexed": true,
          "internalType": "uint256",
          "name": "tokenId",
          "type": "uint256"
        }
      ],
      "name": "Approval",
      "type": "event"
    },
    {
      "anonymous": false,
      "inputs": [
        {
          "indexed": true,
          "internalType": "address",
          "name": "owner",
          "type": "address"
        },
        {
          "indexed": true,
          "internalType": "address",
          "name": "operator",
          "type": "address"
        },
        {
          "indexed": false,
          "internalType": "bool",
          "name": "approved",
          "type": "bool"
        }
      ],
      "name": "ApprovalForAll",
      "type": "event"
    },
    {
      "anonymous": false,
      "inputs": [
        {
          "indexed": true,
          "internalType": "uint256",
          "name": "fromTokenId",
          "type": "uint256"
        },
        {
          "indexed": false,
          "internalType": "uint256",
          "name": "toTokenId",
          "type": "uint256"
        },
        {
          "indexed": true,
          "internalType": "address",
          "name": "from",
          "type": "address"
        },
        {
          "indexed": true,
          "internalType": "address",
          "name": "to",
          "type": "address"
        }
      ],
      "name": "ConsecutiveTransfer",
      "type": "event"
    },
    {
      "anonymous": false,
      "inputs": [
        {
          "indexed": true,
          "internalType": "address",
          "name": "previousOwner",
          "type": "address"
        },
        {
          "indexed": true,
          "internalType": "address",
          "name": "newOwner",
          "type": "address"
        }
      ],
      "name": "OwnershipTransferred",
      "type": "event"
    },
    {
      "anonymous": false,
      "inputs": [
        {
          "indexed": true,
          "internalType": "address",
          "name": "from",
          "type": "address"
        },
        {
          "indexed": true,
          "internalType": "address",
          "name": "to",
          "type": "address"
        },
        {
          "indexed": true,
          "internalType": "uint256",
          "name": "tokenId",
          "type": "uint256"
        }
      ],
      "name": "Transfer",
      "type": "event"
    },
    {
      "inputs": [],
      "name": "MaxperWallet",
      "outputs": [
        {
          "internalType": "uint256",
          "name": "",
          "type": "uint256"
        }
      ],
      "stateMutability": "view",
      "type": "function"
    },
    {
      "inputs": [
        {
          "internalType": "address",
          "name": "to",
          "type": "address"
        },
        {
          "internalType": "uint256",
          "name": "tokenId",
          "type": "uint256"
        }
      ],
      "name": "approve",
      "outputs": [],
      "stateMutability": "payable",
      "type": "function"
    },
    {
      "inputs": [
        {
          "internalType": "address",
          "name": "owner",
          "type": "address"
        }
      ],
      "name": "balanceOf",
      "outputs": [
        {
          "internalType": "uint256",
          "name": "",
          "type": "uint256"
        }
      ],
      "stateMutability": "view",
      "type": "function"
    },
    {
      "inputs": [],
      "name": "baseExtension",
      "outputs": [
        {
          "internalType": "string",
          "name": "",
          "type": "string"
        }
      ],
      "stateMutability": "view",
      "type": "function"
    },
    {
      "inputs": [],
      "name": "baseURI",
      "outputs": [
        {
          "internalType": "string",
          "name": "",
          "type": "string"
        }
      ],
      "stateMutability": "view",
      "type": "function"
    },
    {
      "inputs": [],
      "name": "cost",
      "outputs": [
        {
          "internalType": "uint256",
          "name": "",
          "type": "uint256"
        }
      ],
      "stateMutability": "view",
      "type": "function"
    },
    {
      "inputs": [
        {
          "internalType": "uint256",
          "name": "tokenId",
          "type": "uint256"
        }
      ],
      "name": "getApproved",
      "outputs": [
        {
          "internalType": "address",
          "name": "",
          "type": "address"
        }
      ],
      "stateMutability": "view",
      "type": "function"
    },
    {
      "inputs": [
        {
          "internalType": "address",
          "name": "owner",
          "type": "address"
        },
        {
          "internalType": "address",
          "name": "operator",
          "type": "address"
        }
      ],
      "name": "isApprovedForAll",
      "outputs": [
        {
          "internalType": "bool",
          "name": "",
          "type": "bool"
        }
      ],
      "stateMutability": "view",
      "type": "function"
    },
    {
      "inputs": [],
      "name": "isOwnerCall",
      "outputs": [
        {
          "internalType": "bool",
          "name": "",
          "type": "bool"
        }
      ],
      "stateMutability": "view",
      "type": "function"
    },
    {
      "inputs": [],
      "name": "maxSupply",
      "outputs": [
        {
          "internalType": "uint256",
          "name": "",
          "type": "uint256"
        }
      ],
      "stateMutability": "view",
      "type": "function"
    },
    {
      "inputs": [
        {
          "internalType": "uint256",
          "name": "tokens",
          "type": "uint256"
        }
      ],
      "name": "mint",
      "outputs": [],
      "stateMutability": "payable",
      "type": "function"
    },
    {
      "inputs": [],
      "name": "name",
      "outputs": [
        {
          "internalType": "string",
          "name": "",
          "type": "string"
        }
      ],
      "stateMutability": "view",
      "type": "function"
    },
    {
      "inputs": [
        {
          "internalType": "address",
          "name": "owner",
          "type": "address"
        }
      ],
      "name": "numberMinted",
      "outputs": [
        {
          "internalType": "uint256",
          "name": "",
          "type": "uint256"
        }
      ],
      "stateMutability": "view",
      "type": "function"
    },
    {
      "inputs": [],
      "name": "owner",
      "outputs": [
        {
          "internalType": "address",
          "name": "",
          "type": "address"
        }
      ],
      "stateMutability": "view",
      "type": "function"
    },
    {
      "inputs": [
        {
          "internalType": "uint256",
          "name": "tokenId",
          "type": "uint256"
        }
      ],
      "name": "ownerOf",
      "outputs": [
        {
          "internalType": "address",
          "name": "",
          "type": "address"
        }
      ],
      "stateMutability": "view",
      "type": "function"
    },
    {
      "inputs": [
        {
          "internalType": "bool",
          "name": "_state",
          "type": "bool"
        }
      ],
      "name": "pause",
      "outputs": [],
      "stateMutability": "nonpayable",
      "type": "function"
    },
    {
      "inputs": [],
      "name": "paused",
      "outputs": [
        {
          "internalType": "bool",
          "name": "",
          "type": "bool"
        }
      ],
      "stateMutability": "view",
      "type": "function"
    },
    {
      "inputs": [],
      "name": "renounceOwnership",
      "outputs": [],
      "stateMutability": "nonpayable",
      "type": "function"
    },
    {
      "inputs": [
        {
          "internalType": "address",
          "name": "from",
          "type": "address"
        },
        {
          "internalType": "address",
          "name": "to",
          "type": "address"
        },
        {
          "internalType": "uint256",
          "name": "tokenId",
          "type": "uint256"
        }
      ],
      "name": "safeTransferFrom",
      "outputs": [],
      "stateMutability": "payable",
      "type": "function"
    },
    {
      "inputs": [
        {
          "internalType": "address",
          "name": "from",
          "type": "address"
        },
        {
          "internalType": "address",
          "name": "to",
          "type": "address"
        },
        {
          "internalType": "uint256",
          "name": "tokenId",
          "type": "uint256"
        },
        {
          "internalType": "bytes",
          "name": "_data",
          "type": "bytes"
        }
      ],
      "name": "safeTransferFrom",
      "outputs": [],
      "stateMutability": "payable",
      "type": "function"
    },
    {
      "inputs": [
        {
          "internalType": "address",
          "name": "operator",
          "type": "address"
        },
        {
          "internalType": "bool",
          "name": "approved",
          "type": "bool"
        }
      ],
      "name": "setApprovalForAll",
      "outputs": [],
      "stateMutability": "nonpayable",
      "type": "function"
    },
    {
      "inputs": [
        {
          "internalType": "string",
          "name": "_newBaseURI",
          "type": "string"
        }
      ],
      "name": "setBaseURI",
      "outputs": [],
      "stateMutability": "nonpayable",
      "type": "function"
    },
    {
      "inputs": [],
      "name": "showBalance",
      "outputs": [
        {
          "internalType": "uint256",
          "name": "",
          "type": "uint256"
        }
      ],
      "stateMutability": "view",
      "type": "function"
    },
    {
      "inputs": [
        {
          "internalType": "bytes4",
          "name": "interfaceId",
          "type": "bytes4"
        }
      ],
      "name": "supportsInterface",
      "outputs": [
        {
          "internalType": "bool",
          "name": "",
          "type": "bool"
        }
      ],
      "stateMutability": "view",
      "type": "function"
    },
    {
      "inputs": [],
      "name": "symbol",
      "outputs": [
        {
          "internalType": "string",
          "name": "",
          "type": "string"
        }
      ],
      "stateMutability": "view",
      "type": "function"
    },
    {
      "inputs": [
        {
          "internalType": "uint256",
          "name": "tokenId",
          "type": "uint256"
        }
      ],
      "name": "tokenURI",
      "outputs": [
        {
          "internalType": "string",
          "name": "",
          "type": "string"
        }
      ],
      "stateMutability": "view",
      "type": "function"
    },
    {
      "inputs": [],
      "name": "totalSupply",
      "outputs": [
        {
          "internalType": "uint256",
          "name": "",
          "type": "uint256"
        }
      ],
      "stateMutability": "view",
      "type": "function"
    },
    {
      "inputs": [
        {
          "internalType": "address",
          "name": "from",
          "type": "address"
        },
        {
          "internalType": "address",
          "name": "to",
          "type": "address"
        },
        {
          "internalType": "uint256",
          "name": "tokenId",
          "type": "uint256"
        }
      ],
      "name": "transferFrom",
      "outputs": [],
      "stateMutability": "payable",
      "type": "function"
    },
    {
      "inputs": [
        {
          "internalType": "address",
          "name": "newOwner",
          "type": "address"
        }
      ],
      "name": "transferOwnership",
      "outputs": [],
      "stateMutability": "nonpayable",
      "type": "function"
    },
    {
      "inputs": [],
      "name": "withdraw",
      "outputs": [],
      "stateMutability": "payable",
      "type": "function"
    }
  ],
  "bytecode": "0x60806040526040518060400160405280600581526020017f2e6a736f6e000000000000000000000000000000000000000000000000000000815250600b9080519060200190620000519291906200037a565b506691a94863ca8000600c55610190600d55600a600e556000600f60006101000a81548160ff0219169083151502179055503480156200009057600080fd5b506040516200375d3803806200375d8339818101604052810190620000b69190620005c7565b6040518060400160405280601181526020017f576f726c644375705261626269744e46540000000000000000000000000000008152506040518060400160405280600681526020017f526162626974000000000000000000000000000000000000000000000000000081525081600290805190602001906200013a9291906200037a565b508060039080519060200190620001539291906200037a565b5062000164620001ac60201b60201c565b60008190555050506200018c62000180620001b560201b60201c565b620001bd60201b60201c565b6001600981905550620001a5816200028360201b60201c565b5062000700565b60006001905090565b600033905090565b6000600860009054906101000a900473ffffffffffffffffffffffffffffffffffffffff16905081600860006101000a81548173ffffffffffffffffffffffffffffffffffffffff021916908373ffffffffffffffffffffffffffffffffffffffff1602179055508173ffffffffffffffffffffffffffffffffffffffff168173ffffffffffffffffffffffffffffffffffffffff167f8be0079c531659141344cd1fd0a4f28419497f9722a3daafe3b4186f6b6457e060405160405180910390a35050565b62000293620002bf60201b60201c565b620002a3620002bf60201b60201c565b80600a9080519060200190620002bb9291906200037a565b5050565b620002cf620001b560201b60201c565b73ffffffffffffffffffffffffffffffffffffffff16620002f56200035060201b60201c565b73ffffffffffffffffffffffffffffffffffffffff16146200034e576040517f08c379a0000000000000000000000000000000000000000000000000000000008152600401620003459062000679565b60405180910390fd5b565b6000600860009054906101000a900473ffffffffffffffffffffffffffffffffffffffff16905090565b8280546200038890620006ca565b90600052602060002090601f016020900481019282620003ac5760008555620003f8565b82601f10620003c757805160ff1916838001178555620003f8565b82800160010185558215620003f8579182015b82811115620003f7578251825591602001919060010190620003da565b5b5090506200040791906200040b565b5090565b5b80821115620004265760008160009055506001016200040c565b5090565b6000604051905090565b600080fd5b600080fd5b600080fd5b600080fd5b6000601f19601f8301169050919050565b7f4e487b7100000000000000000000000000000000000000000000000000000000600052604160045260246000fd5b620004938262000448565b810181811067ffffffffffffffff82111715620004b557620004b462000459565b5b80604052505050565b6000620004ca6200042a565b9050620004d8828262000488565b919050565b600067ffffffffffffffff821115620004fb57620004fa62000459565b5b620005068262000448565b9050602081019050919050565b60005b838110156200053357808201518184015260208101905062000516565b8381111562000543576000848401525b50505050565b6000620005606200055a84620004dd565b620004be565b9050828152602081018484840111156200057f576200057e62000443565b5b6200058c84828562000513565b509392505050565b600082601f830112620005ac57620005ab6200043e565b5b8151620005be84826020860162000549565b91505092915050565b600060208284031215620005e057620005df62000434565b5b600082015167ffffffffffffffff81111562000601576200060062000439565b5b6200060f8482850162000594565b91505092915050565b600082825260208201905092915050565b7f4f776e61626c653a2063616c6c6572206973206e6f7420746865206f776e6572600082015250565b60006200066160208362000618565b91506200066e8262000629565b602082019050919050565b60006020820190508181036000830152620006948162000652565b9050919050565b7f4e487b7100000000000000000000000000000000000000000000000000000000600052602260045260246000fd5b60006002820490506001821680620006e357607f821691505b60208210811415620006fa57620006f96200069b565b5b50919050565b61304d80620007106000396000f3fe6080604052600436106101cd5760003560e01c806370a08231116100f7578063b88d4fde11610095578063d5abeb0111610064578063d5abeb0114610604578063dc33e6811461062f578063e985e9c51461066c578063f2fde38b146106a9576101cd565b8063b88d4fde14610555578063bd7a199814610571578063c66828621461059c578063c87b56dd146105c7576101cd565b80638da5cb5b116100d15780638da5cb5b146104ba57806395d89b41146104e5578063a0712d6814610510578063a22cb4651461052c576101cd565b806370a082311461043b578063715018a61461047857806381b2d07b1461048f576101cd565b806323b872dd1161016f57806355f804b31161013e57806355f804b31461037f5780635c975abb146103a85780636352211e146103d35780636c0360eb14610410576101cd565b806323b872dd146103125780633a6779941461032e5780633ccfd60b1461035957806342842e0e14610363576101cd565b8063081812fc116101ab578063081812fc14610263578063095ea7b3146102a057806313faede6146102bc57806318160ddd146102e7576101cd565b806301ffc9a7146101d257806302329a291461020f57806306fdde0314610238575b600080fd5b3480156101de57600080fd5b506101f960048036038101906101f4919061223e565b6106d2565b6040516102069190612286565b60405180910390f35b34801561021b57600080fd5b50610236600480360381019061023191906122cd565b610764565b005b34801561024457600080fd5b5061024d6107a1565b60405161025a9190612393565b60405180910390f35b34801561026f57600080fd5b5061028a600480360381019061028591906123eb565b610833565b6040516102979190612459565b60405180910390f35b6102ba60048036038101906102b591906124a0565b6108b2565b005b3480156102c857600080fd5b506102d16109f6565b6040516102de91906124ef565b60405180910390f35b3480156102f357600080fd5b506102fc6109fc565b60405161030991906124ef565b60405180910390f35b61032c6004803603810190610327919061250a565b610a13565b005b34801561033a57600080fd5b50610343610d38565b6040516103509190612286565b60405180910390f35b610361610d84565b005b61037d6004803603810190610378919061250a565b610dfa565b005b34801561038b57600080fd5b506103a660048036038101906103a19190612692565b610e1a565b005b3480156103b457600080fd5b506103bd610e44565b6040516103ca9190612286565b60405180910390f35b3480156103df57600080fd5b506103fa60048036038101906103f591906123eb565b610e57565b6040516104079190612459565b60405180910390f35b34801561041c57600080fd5b50610425610e69565b6040516104329190612393565b60405180910390f35b34801561044757600080fd5b50610462600480360381019061045d91906126db565b610ef7565b60405161046f91906124ef565b60405180910390f35b34801561048457600080fd5b5061048d610fb0565b005b34801561049b57600080fd5b506104a4610fc4565b6040516104b191906124ef565b60405180910390f35b3480156104c657600080fd5b506104cf610fdc565b6040516104dc9190612459565b60405180910390f35b3480156104f157600080fd5b506104fa611006565b6040516105079190612393565b60405180910390f35b61052a600480360381019061052591906123eb565b611098565b005b34801561053857600080fd5b50610553600480360381019061054e9190612708565b611280565b005b61056f600480360381019061056a91906127e9565b61138b565b005b34801561057d57600080fd5b506105866113fe565b60405161059391906124ef565b60405180910390f35b3480156105a857600080fd5b506105b1611404565b6040516105be9190612393565b60405180910390f35b3480156105d357600080fd5b506105ee60048036038101906105e991906123eb565b611492565b6040516105fb9190612393565b60405180910390f35b34801561061057600080fd5b5061061961153c565b60405161062691906124ef565b60405180910390f35b34801561063b57600080fd5b50610656600480360381019061065191906126db565b611542565b60405161066391906124ef565b60405180910390f35b34801561067857600080fd5b50610693600480360381019061068e919061286c565b611564565b6040516106a09190612286565b60405180910390f35b3480156106b557600080fd5b506106d060048036038101906106cb91906126db565b6115f8565b005b60006301ffc9a760e01b827bffffffffffffffffffffffffffffffffffffffffffffffffffffffff1916148061072d57506380ac58cd60e01b827bffffffffffffffffffffffffffffffffffffffffffffffffffffffff1916145b8061075d5750635b5e139f60e01b827bffffffffffffffffffffffffffffffffffffffffffffffffffffffff1916145b9050919050565b61076c61167c565b6107746116fa565b61077c61167c565b80600f60006101000a81548160ff02191690831515021790555061079e61174a565b50565b6060600280546107b0906128db565b80601f01602080910402602001604051908101604052809291908181526020018280546107dc906128db565b80156108295780601f106107fe57610100808354040283529160200191610829565b820191906000526020600020905b81548152906001019060200180831161080c57829003601f168201915b5050505050905090565b600061083e82611754565b610874576040517fcf4700e400000000000000000000000000000000000000000000000000000000815260040160405180910390fd5b6006600083815260200190815260200160002060000160009054906101000a900473ffffffffffffffffffffffffffffffffffffffff169050919050565b60006108bd82610e57565b90508073ffffffffffffffffffffffffffffffffffffffff166108de6117b3565b73ffffffffffffffffffffffffffffffffffffffff16146109415761090a816109056117b3565b611564565b610940576040517fcfb3b94200000000000000000000000000000000000000000000000000000000815260040160405180910390fd5b5b826006600084815260200190815260200160002060000160006101000a81548173ffffffffffffffffffffffffffffffffffffffff021916908373ffffffffffffffffffffffffffffffffffffffff160217905550818373ffffffffffffffffffffffffffffffffffffffff168273ffffffffffffffffffffffffffffffffffffffff167f8c5be1e5ebec7d5bd14f71427d1e84f3dd0314c0f7b2291e5b200ac8c7c3b92560405160405180910390a4505050565b600c5481565b6000610a066117bb565b6001546000540303905090565b6000610a1e826117c4565b90508373ffffffffffffffffffffffffffffffffffffffff168173ffffffffffffffffffffffffffffffffffffffff1614610a85576040517fa114810000000000000000000000000000000000000000000000000000000000815260040160405180910390fd5b600080610a9184611892565b91509150610aa78187610aa26117b3565b6118b9565b610af357610abc86610ab76117b3565b611564565b610af2576040517f59c896be00000000000000000000000000000000000000000000000000000000815260040160405180910390fd5b5b600073ffffffffffffffffffffffffffffffffffffffff168573ffffffffffffffffffffffffffffffffffffffff161415610b5a576040517fea553b3400000000000000000000000000000000000000000000000000000000815260040160405180910390fd5b610b6786868660016118fd565b8015610b7257600082555b600560008773ffffffffffffffffffffffffffffffffffffffff1673ffffffffffffffffffffffffffffffffffffffff168152602001908152602001600020600081546001900391905081905550600560008673ffffffffffffffffffffffffffffffffffffffff1673ffffffffffffffffffffffffffffffffffffffff1681526020019081526020016000206000815460010191905081905550610c4085610c1c888887611903565b7c02000000000000000000000000000000000000000000000000000000001761192b565b600460008681526020019081526020016000208190555060007c020000000000000000000000000000000000000000000000000000000084161415610cc8576000600185019050600060046000838152602001908152602001600020541415610cc6576000548114610cc5578360046000838152602001908152602001600020819055505b5b505b838573ffffffffffffffffffffffffffffffffffffffff168773ffffffffffffffffffffffffffffffffffffffff167fddf252ad1be2c89b69c2b068fc378daa952ba7f163c4a11628f55a4df523b3ef60405160405180910390a4610d308686866001611956565b505050505050565b6000610d4261167c565b610d4a6117b3565b73ffffffffffffffffffffffffffffffffffffffff16610d68610fdc565b73ffffffffffffffffffffffffffffffffffffffff1614905090565b610d8c61167c565b610d946116fa565b610d9c61167c565b6000479050610da9610fdc565b73ffffffffffffffffffffffffffffffffffffffff166108fc829081150290604051600060405180830381858888f19350505050158015610dee573d6000803e3d6000fd5b5050610df861174a565b565b610e158383836040518060200160405280600081525061138b565b505050565b610e2261167c565b610e2a61167c565b80600a9080519060200190610e4092919061212f565b5050565b600f60009054906101000a900460ff1681565b6000610e62826117c4565b9050919050565b600a8054610e76906128db565b80601f0160208091040260200160405190810160405280929190818152602001828054610ea2906128db565b8015610eef5780601f10610ec457610100808354040283529160200191610eef565b820191906000526020600020905b815481529060010190602001808311610ed257829003601f168201915b505050505081565b60008073ffffffffffffffffffffffffffffffffffffffff168273ffffffffffffffffffffffffffffffffffffffff161415610f5f576040517f8f4eb60400000000000000000000000000000000000000000000000000000000815260040160405180910390fd5b67ffffffffffffffff600560008473ffffffffffffffffffffffffffffffffffffffff1673ffffffffffffffffffffffffffffffffffffffff16815260200190815260200160002054169050919050565b610fb861167c565b610fc2600061195c565b565b6000610fce61167c565b610fd661167c565b47905090565b6000600860009054906101000a900473ffffffffffffffffffffffffffffffffffffffff16905090565b606060038054611015906128db565b80601f0160208091040260200160405190810160405280929190818152602001828054611041906128db565b801561108e5780601f106110635761010080835404028352916020019161108e565b820191906000526020600020905b81548152906001019060200180831161107157829003601f168201915b5050505050905090565b6110a06116fa565b3373ffffffffffffffffffffffffffffffffffffffff163273ffffffffffffffffffffffffffffffffffffffff161461110e576040517f08c379a000000000000000000000000000000000000000000000000000000000815260040161110590612959565b60405180910390fd5b600f60009054906101000a900460ff161561115e576040517f08c379a0000000000000000000000000000000000000000000000000000000008152600401611155906129c5565b60405180910390fd5b600d548161116a6109fc565b6111749190612a14565b11156111b5576040517f08c379a00000000000000000000000000000000000000000000000000000000081526004016111ac90612ab6565b60405180910390fd5b600e54816111c96111c46117b3565b611a22565b6111d39190612a14565b1115611214576040517f08c379a000000000000000000000000000000000000000000000000000000000815260040161120b90612b22565b60405180910390fd5b80600c546112229190612b42565b341015611264576040517f08c379a000000000000000000000000000000000000000000000000000000000815260040161125b90612be8565b60405180910390fd5b61127561126f6117b3565b82611a79565b61127d61174a565b50565b806007600061128d6117b3565b73ffffffffffffffffffffffffffffffffffffffff1673ffffffffffffffffffffffffffffffffffffffff16815260200190815260200160002060008473ffffffffffffffffffffffffffffffffffffffff1673ffffffffffffffffffffffffffffffffffffffff16815260200190815260200160002060006101000a81548160ff0219169083151502179055508173ffffffffffffffffffffffffffffffffffffffff1661133a6117b3565b73ffffffffffffffffffffffffffffffffffffffff167f17307eab39ab6107e8899845ad3d59bd9653f200f220920489ca2b5937696c318360405161137f9190612286565b60405180910390a35050565b611396848484610a13565b60008373ffffffffffffffffffffffffffffffffffffffff163b146113f8576113c184848484611a97565b6113f7576040517fd1a57ed600000000000000000000000000000000000000000000000000000000815260040160405180910390fd5b5b50505050565b600e5481565b600b8054611411906128db565b80601f016020809104026020016040519081016040528092919081815260200182805461143d906128db565b801561148a5780601f1061145f5761010080835404028352916020019161148a565b820191906000526020600020905b81548152906001019060200180831161146d57829003601f168201915b505050505081565b606061149d82611754565b6114dc576040517f08c379a00000000000000000000000000000000000000000000000000000000081526004016114d390612c7a565b60405180910390fd5b60006114e6611bf7565b905060008151116115065760405180602001604052806000815250611534565b8061151084611c89565b600b60405160200161152493929190612d6a565b6040516020818303038152906040525b915050919050565b600d5481565b600061154c61167c565b61155461167c565b61155d82611a22565b9050919050565b6000600760008473ffffffffffffffffffffffffffffffffffffffff1673ffffffffffffffffffffffffffffffffffffffff16815260200190815260200160002060008373ffffffffffffffffffffffffffffffffffffffff1673ffffffffffffffffffffffffffffffffffffffff16815260200190815260200160002060009054906101000a900460ff16905092915050565b61160061167c565b600073ffffffffffffffffffffffffffffffffffffffff168173ffffffffffffffffffffffffffffffffffffffff161415611670576040517f08c379a000000000000000000000000000000000000000000000000000000000815260040161166790612e0d565b60405180910390fd5b6116798161195c565b50565b611684611d61565b73ffffffffffffffffffffffffffffffffffffffff166116a2610fdc565b73ffffffffffffffffffffffffffffffffffffffff16146116f8576040517f08c379a00000000000000000000000000000000000000000000000000000000081526004016116ef90612e79565b60405180910390fd5b565b60026009541415611740576040517f08c379a000000000000000000000000000000000000000000000000000000000815260040161173790612ee5565b60405180910390fd5b6002600981905550565b6001600981905550565b60008161175f6117bb565b1115801561176e575060005482105b80156117ac575060007c0100000000000000000000000000000000000000000000000000000000600460008581526020019081526020016000205416145b9050919050565b600033905090565b60006001905090565b600080829050806117d36117bb565b1161185b5760005481101561185a5760006004600083815260200190815260200160002054905060007c010000000000000000000000000000000000000000000000000000000082161415611858575b600081141561184e576004600083600190039350838152602001908152602001600020549050611823565b809250505061188d565b505b5b6040517fdf2d9b4200000000000000000000000000000000000000000000000000000000815260040160405180910390fd5b919050565b60008060006006600085815260200190815260200160002090508092508254915050915091565b600073ffffffffffffffffffffffffffffffffffffffff8316925073ffffffffffffffffffffffffffffffffffffffff821691508382148383141790509392505050565b50505050565b60008060e883901c905060e861191a868684611d69565b62ffffff16901b9150509392505050565b600073ffffffffffffffffffffffffffffffffffffffff83169250814260a01b178317905092915050565b50505050565b6000600860009054906101000a900473ffffffffffffffffffffffffffffffffffffffff16905081600860006101000a81548173ffffffffffffffffffffffffffffffffffffffff021916908373ffffffffffffffffffffffffffffffffffffffff1602179055508173ffffffffffffffffffffffffffffffffffffffff168173ffffffffffffffffffffffffffffffffffffffff167f8be0079c531659141344cd1fd0a4f28419497f9722a3daafe3b4186f6b6457e060405160405180910390a35050565b600067ffffffffffffffff6040600560008573ffffffffffffffffffffffffffffffffffffffff1673ffffffffffffffffffffffffffffffffffffffff16815260200190815260200160002054901c169050919050565b611a93828260405180602001604052806000815250611d72565b5050565b60008373ffffffffffffffffffffffffffffffffffffffff1663150b7a02611abd6117b3565b8786866040518563ffffffff1660e01b8152600401611adf9493929190612f5a565b602060405180830381600087803b158015611af957600080fd5b505af1925050508015611b2a57506040513d601f19601f82011682018060405250810190611b279190612fbb565b60015b611ba4573d8060008114611b5a576040519150601f19603f3d011682016040523d82523d6000602084013e611b5f565b606091505b50600081511415611b9c576040517fd1a57ed600000000000000000000000000000000000000000000000000000000815260040160405180910390fd5b805181602001fd5b63150b7a0260e01b7bffffffffffffffffffffffffffffffffffffffffffffffffffffffff1916817bffffffffffffffffffffffffffffffffffffffffffffffffffffffff191614915050949350505050565b6060600a8054611c06906128db565b80601f0160208091040260200160405190810160405280929190818152602001828054611c32906128db565b8015611c7f5780601f10611c5457610100808354040283529160200191611c7f565b820191906000526020600020905b815481529060010190602001808311611c6257829003601f168201915b5050505050905090565b606060006001611c9884611e0f565b01905060008167ffffffffffffffff811115611cb757611cb6612567565b5b6040519080825280601f01601f191660200182016040528015611ce95781602001600182028036833780820191505090505b509050600082602001820190505b600115611d56578080600190039150507f3031323334353637383961626364656600000000000000000000000000000000600a86061a8153600a8581611d4057611d3f612fe8565b5b0494506000851415611d5157611d56565b611cf7565b819350505050919050565b600033905090565b60009392505050565b611d7c8383611f62565b60008373ffffffffffffffffffffffffffffffffffffffff163b14611e0a57600080549050600083820390505b611dbc6000868380600101945086611a97565b611df2576040517fd1a57ed600000000000000000000000000000000000000000000000000000000815260040160405180910390fd5b818110611da9578160005414611e0757600080fd5b50505b505050565b600080600090507a184f03e93ff9f4daa797ed6e38ed64bf6a1f0100000000000000008310611e6d577a184f03e93ff9f4daa797ed6e38ed64bf6a1f0100000000000000008381611e6357611e62612fe8565b5b0492506040810190505b6d04ee2d6d415b85acef81000000008310611eaa576d04ee2d6d415b85acef81000000008381611ea057611e9f612fe8565b5b0492506020810190505b662386f26fc100008310611ed957662386f26fc100008381611ecf57611ece612fe8565b5b0492506010810190505b6305f5e1008310611f02576305f5e1008381611ef857611ef7612fe8565b5b0492506008810190505b6127108310611f27576127108381611f1d57611f1c612fe8565b5b0492506004810190505b60648310611f4a5760648381611f4057611f3f612fe8565b5b0492506002810190505b600a8310611f59576001810190505b80915050919050565b6000805490506000821415611fa3576040517fb562e8dd00000000000000000000000000000000000000000000000000000000815260040160405180910390fd5b611fb060008483856118fd565b600160406001901b178202600560008573ffffffffffffffffffffffffffffffffffffffff1673ffffffffffffffffffffffffffffffffffffffff16815260200190815260200160002060008282540192505081905550612027836120186000866000611903565b6120218561211f565b1761192b565b6004600083815260200190815260200160002081905550600080838301905073ffffffffffffffffffffffffffffffffffffffff85169150828260007fddf252ad1be2c89b69c2b068fc378daa952ba7f163c4a11628f55a4df523b3ef600080a4600183015b8181146120c857808360007fddf252ad1be2c89b69c2b068fc378daa952ba7f163c4a11628f55a4df523b3ef600080a460018101905061208d565b506000821415612104576040517f2e07630000000000000000000000000000000000000000000000000000000000815260040160405180910390fd5b80600081905550505061211a6000848385611956565b505050565b60006001821460e11b9050919050565b82805461213b906128db565b90600052602060002090601f01602090048101928261215d57600085556121a4565b82601f1061217657805160ff19168380011785556121a4565b828001600101855582156121a4579182015b828111156121a3578251825591602001919060010190612188565b5b5090506121b191906121b5565b5090565b5b808211156121ce5760008160009055506001016121b6565b5090565b6000604051905090565b600080fd5b600080fd5b60007fffffffff0000000000000000000000000000000000000000000000000000000082169050919050565b61221b816121e6565b811461222657600080fd5b50565b60008135905061223881612212565b92915050565b600060208284031215612254576122536121dc565b5b600061226284828501612229565b91505092915050565b60008115159050919050565b6122808161226b565b82525050565b600060208201905061229b6000830184612277565b92915050565b6122aa8161226b565b81146122b557600080fd5b50565b6000813590506122c7816122a1565b92915050565b6000602082840312156122e3576122e26121dc565b5b60006122f1848285016122b8565b91505092915050565b600081519050919050565b600082825260208201905092915050565b60005b83811015612334578082015181840152602081019050612319565b83811115612343576000848401525b50505050565b6000601f19601f8301169050919050565b6000612365826122fa565b61236f8185612305565b935061237f818560208601612316565b61238881612349565b840191505092915050565b600060208201905081810360008301526123ad818461235a565b905092915050565b6000819050919050565b6123c8816123b5565b81146123d357600080fd5b50565b6000813590506123e5816123bf565b92915050565b600060208284031215612401576124006121dc565b5b600061240f848285016123d6565b91505092915050565b600073ffffffffffffffffffffffffffffffffffffffff82169050919050565b600061244382612418565b9050919050565b61245381612438565b82525050565b600060208201905061246e600083018461244a565b92915050565b61247d81612438565b811461248857600080fd5b50565b60008135905061249a81612474565b92915050565b600080604083850312156124b7576124b66121dc565b5b60006124c58582860161248b565b92505060206124d6858286016123d6565b9150509250929050565b6124e9816123b5565b82525050565b600060208201905061250460008301846124e0565b92915050565b600080600060608486031215612523576125226121dc565b5b60006125318682870161248b565b93505060206125428682870161248b565b9250506040612553868287016123d6565b9150509250925092565b600080fd5b600080fd5b7f4e487b7100000000000000000000000000000000000000000000000000000000600052604160045260246000fd5b61259f82612349565b810181811067ffffffffffffffff821117156125be576125bd612567565b5b80604052505050565b60006125d16121d2565b90506125dd8282612596565b919050565b600067ffffffffffffffff8211156125fd576125fc612567565b5b61260682612349565b9050602081019050919050565b82818337600083830152505050565b6000612635612630846125e2565b6125c7565b90508281526020810184848401111561265157612650612562565b5b61265c848285612613565b509392505050565b600082601f8301126126795761267861255d565b5b8135612689848260208601612622565b91505092915050565b6000602082840312156126a8576126a76121dc565b5b600082013567ffffffffffffffff8111156126c6576126c56121e1565b5b6126d284828501612664565b91505092915050565b6000602082840312156126f1576126f06121dc565b5b60006126ff8482850161248b565b91505092915050565b6000806040838503121561271f5761271e6121dc565b5b600061272d8582860161248b565b925050602061273e858286016122b8565b9150509250929050565b600067ffffffffffffffff82111561276357612762612567565b5b61276c82612349565b9050602081019050919050565b600061278c61278784612748565b6125c7565b9050828152602081018484840111156127a8576127a7612562565b5b6127b3848285612613565b509392505050565b600082601f8301126127d0576127cf61255d565b5b81356127e0848260208601612779565b91505092915050565b60008060008060808587031215612803576128026121dc565b5b60006128118782880161248b565b94505060206128228782880161248b565b9350506040612833878288016123d6565b925050606085013567ffffffffffffffff811115612854576128536121e1565b5b612860878288016127bb565b91505092959194509250565b60008060408385031215612883576128826121dc565b5b60006128918582860161248b565b92505060206128a28582860161248b565b9150509250929050565b7f4e487b7100000000000000000000000000000000000000000000000000000000600052602260045260246000fd5b600060028204905060018216806128f357607f821691505b60208210811415612907576129066128ac565b5b50919050565b7f5468652063616c6c657220697320616e6f7468657220636f6e74726163740000600082015250565b6000612943601e83612305565b915061294e8261290d565b602082019050919050565b6000602082019050818103600083015261297281612936565b9050919050565b7f6f6f707320636f6e747261637420697320706175736564000000000000000000600082015250565b60006129af601783612305565b91506129ba82612979565b602082019050919050565b600060208201905081810360008301526129de816129a2565b9050919050565b7f4e487b7100000000000000000000000000000000000000000000000000000000600052601160045260246000fd5b6000612a1f826123b5565b9150612a2a836123b5565b9250827fffffffffffffffffffffffffffffffffffffffffffffffffffffffffffffffff03821115612a5f57612a5e6129e5565b5b828201905092915050565b7f576520536f6c646f757400000000000000000000000000000000000000000000600082015250565b6000612aa0600a83612305565b9150612aab82612a6a565b602082019050919050565b60006020820190508181036000830152612acf81612a93565b9050919050565b7f4d6178204e4654205065722057616c6c65742065786365656465640000000000600082015250565b6000612b0c601b83612305565b9150612b1782612ad6565b602082019050919050565b60006020820190508181036000830152612b3b81612aff565b9050919050565b6000612b4d826123b5565b9150612b58836123b5565b9250817fffffffffffffffffffffffffffffffffffffffffffffffffffffffffffffffff0483118215151615612b9157612b906129e5565b5b828202905092915050565b7f696e73756666696369656e742066756e64730000000000000000000000000000600082015250565b6000612bd2601283612305565b9150612bdd82612b9c565b602082019050919050565b60006020820190508181036000830152612c0181612bc5565b9050919050565b7f455243373231414d657461646174613a2055524920717565727920666f72206e60008201527f6f6e6578697374656e7420746f6b656e00000000000000000000000000000000602082015250565b6000612c64603083612305565b9150612c6f82612c08565b604082019050919050565b60006020820190508181036000830152612c9381612c57565b9050919050565b600081905092915050565b6000612cb0826122fa565b612cba8185612c9a565b9350612cca818560208601612316565b80840191505092915050565b60008190508160005260206000209050919050565b60008154612cf8816128db565b612d028186612c9a565b94506001821660008114612d1d5760018114612d2e57612d61565b60ff19831686528186019350612d61565b612d3785612cd6565b60005b83811015612d5957815481890152600182019150602081019050612d3a565b838801955050505b50505092915050565b6000612d768286612ca5565b9150612d828285612ca5565b9150612d8e8284612ceb565b9150819050949350505050565b7f4f776e61626c653a206e6577206f776e657220697320746865207a65726f206160008201527f6464726573730000000000000000000000000000000000000000000000000000602082015250565b6000612df7602683612305565b9150612e0282612d9b565b604082019050919050565b60006020820190508181036000830152612e2681612dea565b9050919050565b7f4f776e61626c653a2063616c6c6572206973206e6f7420746865206f776e6572600082015250565b6000612e63602083612305565b9150612e6e82612e2d565b602082019050919050565b60006020820190508181036000830152612e9281612e56565b9050919050565b7f5265656e7472616e637947756172643a207265656e7472616e742063616c6c00600082015250565b6000612ecf601f83612305565b9150612eda82612e99565b602082019050919050565b60006020820190508181036000830152612efe81612ec2565b9050919050565b600081519050919050565b600082825260208201905092915050565b6000612f2c82612f05565b612f368185612f10565b9350612f46818560208601612316565b612f4f81612349565b840191505092915050565b6000608082019050612f6f600083018761244a565b612f7c602083018661244a565b612f8960408301856124e0565b8181036060830152612f9b8184612f21565b905095945050505050565b600081519050612fb581612212565b92915050565b600060208284031215612fd157612fd06121dc565b5b6000612fdf84828501612fa6565b91505092915050565b7f4e487b7100000000000000000000000000000000000000000000000000000000600052601260045260246000fdfea264697066735822122062be0b5bb5c1f57959e0ed03a8fb41b20d62f2ae1cba6b9fbf668a944c707a3b64736f6c63430008090033",
  "linkReferences": {},
  "deployedLinkReferences": {}
}